:100000000C947D000C9474040C94C3030C9474043D
:100010000C9474040C9474040C9474040C940304F1
:100020000C9474040C9474040C9474040C94740470
:100030000C9474040C9474040C940B020C947404CB
:100040000C9470020C94A0020C9474040C9474042C
:100050000C9474040C9474040C9474040C94740440
:100060000C9474040C9474040C9474040C94740430
:100070000C9474040C9474040C9474040C94740420
:100080000C9474040C9474040C9474040C94740410
:100090000C9474040C9474040C9474040C94740400
:1000A0000C9474040C9474040C9474040C947404F0
:1000B0000C9474040C9474040C9474040C947404E0
:1000C0000C9474040C9474040C9474040C947404D0
:1000D0000C9474040C9474040C9474040C947404C0
:1000E0000C9474040C9474040C9474040C947404B0
:1000F0000C94740440004011800011241FBECFEF07
:10010000CDBFDFE7DEBFE4EFF0E040E019C0B7911C
:10011000A79137912791079107FD0EC0979187917D
:10012000EF01F92FE82F0BBF07900D92A217B3072D
:10013000D9F7FE011BBE04C01D92A217B307E1F759
:10014000E93FF40721F70E94D2030C94A700F8942A
:02015000FFCFDF
:10015200B802CD02E102F6020A031E033103440390
:1001620056036803790389039803A703B403C10301
:10017200CD03D703E003E903EF03F503FA03FD031D
:10018200FF03FF03FF03FD03FA03F503EF03E90394
:10019200E003D703CD03C103B403A7039803890384
:1001A200790368035603440331031E030A03F6026C
:1001B200E102CD02B802A40290027B02670253025E
:1001C20040022D021B020902F801E801D901CA010D
:1001D200BD01B001A4019A019101880182017C0153
:1001E20077017401720171017201740177017C015E
:1001F2008201880191019A01A401B001BD01CA01E5
:10020200D901E801F80109021B022D024002530242
:0802120067027B029002A402C6
:10021A000F931F93CF93DF930E943F0240E054E075
:10022A008CEFFA01808320E234E088E2F9018083CE
:10023A0080E494E068E0FC016083C0E6D4E06CE40A
:10024A006883A0E8B4E01C9200EA14E0F801108286
:10025A00FA011482F9011482FC0114821C82149698
:10026A001C921497F8011482FA010E942104F901E0
:10027A000E942104FC010E942104188A64E0698B0F
:10028A006A8B6B8B6C8B1D8A6E8B6F8B50961C9254
:10029A00509751966C93519752961C925297539637
:1002AA006C93539754961C92549755961C92559753
:1002BA0056961C92569757961C925797F8010E9489
:1002CA002104FA010E946204F9010E946204FC01FD
:1002DA000E9462041B861E861D861C861B961C9223
:1002EA001B971E961C921E971D961C921D971C9674
:1002FA001C92F8010E946204E0EEF5E01186118278
:10030A001082148216821782108615821282138234
:0C031A001286DF91CF911F910F91089582
:10032600E0E8FBE08BE090E082A793A710A611A679
:1003360027E130E026A737A784A795A71092810B5F
:1003460088E08093820B80E58093830B1092840B68
:1003560010929E0B1092980B1092990B1092940B80
:100366001092950B1092880B1092890B4FEF68ED47
:1003760082E99BE00E945D041092900B1092910B13
:1003860010928C0B80918E0B80FFFCCF10928E0BFF
:0A03960089E08093800B80E0089559
:1003A00022E030E020930E4030930F402AE030E00E
:1003B00020930C4030930D4021E731E020930A4018
:1003C00030930B402FEF33E02093084030930940E7
:1003D00010921040833069F028F48230A1F483EB4E
:1003E00093E009C0843061F0853069F481E293E0E4
:1003F00002C080E793E0809306409093074007C0D7
:1004000087E194E0F8CF109206401092074081E710
:0604100091E00C940D04C4
:100416001F920F920FB60F9211240BB60F922F93C5
:100426003F934F935F936F937F938F939F93AF9376
:10043600BF93EF93FF938091060B80FF0AC0E09174
:100446000440F0910540309709F0099581E08093CA
:10045600060BFF91EF91BF91AF919F918F917F9185
:100466006F915F914F913F912F910F900BBE0F901F
:080476000FBE0F901F901895B6
:10047E00E0E9F4E00E946C04E83984E0F807D1F773
:10048E00E0EBF4E00E946C04E83B84E0F807D1F75F
:10049E00E0E1F4E00E946C04E83184E0F807D1F763
:1004AE00E0E3F4E00E946C04E83384E0F807D1F74F
:1004BE00E0E5F4E00E946C04E83584E0F807D1F73B
:1004CE00E0E7F4E00E946C04E83784E0F807D1F727
:0204DE0008957F
:1004E0001F920F920FB60F9211240BB60F922F93FB
:1004F0003F934F935F936F937F938F939F93AF93AC
:10050000BF93EF93FF9381E080938D0BE0910040C8
:10051000F0910140309709F00995FF91EF91BF915B
:10052000AF919F918F917F916F915F914F913F918B
:100530002F910F900BBE0F900FBE0F901F9018952C
:100540001F920F920FB60F9211240BB60F922F939A
:100550003F934F935F936F937F938F939F93AF934B
:10056000BF93EF93FF9384E080938D0BE091024063
:10057000F0910340309709F00995FF91EF91BF91F9
:10058000AF919F918F917F916F915F914F913F912B
:100590002F910F900BBE0F900FBE0F901F901895CC
:1005A00060E088E790E00E94700460E08CE790E0F3
:1005B0000E94700460E081E690E00E94700460E0B8
:1005C00082E690E00E94700460E083E690E00E9482
:1005D000700460E880E690E00E94700460E085E6C8
:1005E00090E00E94700464E288E690E00E9470044B
:0405F00080E008950A
:1005F400E0ECF1E0158216821782118612868DE0F6
:1006040085871686118A128A158A168A118E128E89
:10061400158E168E118212821382138682E08787CA
:10062400138A178A138E178E108681E48487108AA2
:0E063400148A108E148E81E0808380E0089579
:1006420080911040843611F4109210408091104035
:1006520090E0880F991F092E000CAA0B8E5A9E4F0C
:10066200AF4FFC015A2F0E942A04909110409F5FC5
:0806720090931040CB010895A4
:10067A000E945704E0E0F7E087E1828381E081830A
:10068A00178682E2838B128A85E8808B8FE7848BB8
:10069A00138E128E92E0908F848F13A212A290A3CF
:0606AA0084A30C9451042E
:1006B0000E940D010E94ED030E944A040E94D00294
:1006C0000E9443040E943D030E943B040E94FA02E0
:1006D0000E949F030E9433040E9493010C94E00344
:1006E00020910C4030910D40821B930B20910A40C9
:1006F00030910B402817390750F080910A409091B3
:100700000B4023EB33E020930640309307400895DD
:100710008091064090910740892B81F0E09106403E
:10072000F09107408091A2069091A30626E096954D
:0E07300087952A95E1F709950C940D0408951C
:10073E00E0E0FBE08FEE90E08487958712861386CB
:10074E0080E1818381E08087148285831682118601
:08075E0081E4808380E008952E
:100766000E94F8038217930750F0809108409091F9
:10077600094020E733E02093064030930740089570
:100786001F920F920FB60F9211248F9381E08093E0
:0E079600AA008F910F900FBE0F901F90189524
:1007A4000E94580385E00E94D00181E791E00E94F5
:0C07B4000D0488E893E00E946704FFCF6A
:1007C00040E068ED80E191E00E945D04E0E1F1E04D
:0A07D00012821382789480E00895ED
:1007DA0060E080EA90E00E947004E0EAF0E01186AE
:0607EA00108680E0089576
:1007F00020910E4030910F40820F931F20910840AE
:060800003091094008954B
:100806001F920F920FB60F9211240F900FBE0F90EA
:040816001F90189582
:10081A0026E0880F991F2A95E1F78093A206909304
:04082A00A306089584
:10082E000E94F8032817390720F480910A4090910E
:04083E000B400895CE
:10084200108A118A128A138A148A158A168A178ABA
:02085200089507
:1008540057FD04C05BBF67917791089561917191D1
:020864000895F5
:10086600E0EBF0E01482108285E8828380E0089550
:10087600E0EAF6E081EC80831282138280E008953C
:0E08860060E080E590E00E94700480E008953C
:0E08940060E080E091E00E94700480E0089532
:0C08A200E0E0F7E0808181608083089531
:0C08AE00E0E0F7E080818E7F80830895F9
:0A08BA001BBEFC0164BF40830895DB
:0A08C4001386168615861486089523
:0A08CE0080930440909305400895C4
:0808D80080818860819308957E
:0808E000462F68ED0C945D0445
:0408E8000C9400006C
:02000004008278
:090000000000000000C00800002F
:00000001FF
