:100000000C947D000C94ED090C94FE060C94ED0903
:100010000C94ED090C94ED090C94ED090C94F9087D
:100020000C94ED090C94ED090C94ED090C94ED0978
:100030000C94ED090C94ED090C9410050C94ED0949
:100040000C945C050C949E050C94ED090C94ED0940
:100050000C94ED090C94ED090C94ED090C94ED0948
:100060000C94ED090C94ED090C94ED090C94ED0938
:100070000C94ED090C94ED090C94ED090C94ED0928
:100080000C94ED090C94ED090C94ED090C94ED0918
:100090000C94ED090C94ED090C94ED090C94ED0908
:1000A0000C94ED090C94ED090C94ED090C94ED09F8
:1000B0000C94ED090C94ED090C94ED090C94ED09E8
:1000C0000C94ED090C94ED090C94ED090C94ED09D8
:1000D0000C94ED090C94ED090C94ED090C94ED09C8
:1000E0000C94ED090C94ED090C94ED090C94ED09B8
:1000F0000C94ED0940004029800011241FBECFEF71
:10010000CDBFDFE7DEBFE4EFF0E040E019C0B7911C
:10011000A79137912791079107FD0EC0979187917D
:10012000EF01F92FE82F0BBF07900D92A217B3072D
:10013000D9F7FE011BBE04C01D92A217B307E1F759
:10014000E93FF40721F70E9431090C94A700F894C5
:02015000FFCFDF
:10015200B802CD02E102F6020A031E033103440390
:1001620056036803790389039803A703B403C10301
:10017200CD03D703E003E903EF03F503FA03FD031D
:10018200FF03FF03FF03FD03FA03F503EF03E90394
:10019200E003D703CD03C103B403A7039803890384
:1001A200790368035603440331031E030A03F6026C
:1001B200E102CD02B802A40290027B02670253025E
:1001C20040022D021B020902F801E801D901CA010D
:1001D200BD01B001A4019A019101880182017C0153
:1001E20077017401720171017201740177017C015E
:1001F2008201880191019A01A401B001BD01CA01E5
:10020200D901E801F80109021B022D024002530242
:0802120067027B029002A402C6
:10021A00CF93DF93CDB7DEB70E94CF0280E094E0A0
:10022A002CEFFC01208380E294E028E2FC01208389
:10023A0080E494E028E0FC01208380E694E02CE44A
:10024A00FC01208380E894E0FC01108280EA94E0BB
:10025A00FC01108280E094E0FC01148280E294E0C8
:10026A00FC01148280E494E0FC01148280E694E0AC
:10027A00FC01148280E894E0FC01148280EA94E094
:10028A00FC01148280E094E0FC01108A80E094E092
:10029A00FC01118A80E094E0FC01128A80E094E07B
:1002AA00FC01138A80E094E0FC01148A80E094E067
:1002BA00FC01158A80E094E0FC01168A80E094E053
:1002CA00FC01178A80E294E0FC01108A80E294E043
:1002DA00FC01118A80E294E0FC01128A80E294E037
:1002EA00FC01138A80E294E0FC01148A80E294E023
:1002FA00FC01158A80E294E0FC01168A80E294E00F
:10030A00FC01178A80E494E0FC01108A80E494E0FE
:10031A00FC01118A80E494E0FC01128A80E494E0F2
:10032A00FC01138A80E494E0FC01148A80E494E0DE
:10033A00FC01158A80E494E0FC01168A80E494E0CA
:10034A00FC01178A80E694E0FC01108A80E694E0BA
:10035A0024E0FC01218B80E694E024E0FC01228B5E
:10036A0080E694E024E0FC01238B80E694E024E01C
:10037A00FC01248B80E694E0FC01158A80E694E077
:10038A0024E0FC01268B80E694E024E0FC01278B24
:10039A0080E894E0FC01108A80E894E024E0FC0103
:1003AA00218B80E894E0FC01128A80E894E024E042
:1003BA00FC01238B80E894E0FC01148A80E894E035
:1003CA00FC01158A80E894E0FC01168A80E894E032
:1003DA00FC01178A80EA94E0FC01108A80EA94E022
:1003EA00FC01118A80EA94E0FC01128A80EA94E016
:1003FA00FC01138A80EA94E0FC01148A80EA94E002
:10040A00FC01158A80EA94E0FC01168A80EA94E0ED
:10041A00FC01178A80E094E0FC01138680E094E0F6
:10042A00FC01168680E094E0FC01158680E094E0E9
:10043A00FC01148680E294E0FC01138680E294E0D9
:10044A00FC01168680E294E0FC01158680E294E0C5
:10045A00FC01148680E494E0FC01138680E494E0B5
:10046A00FC01168680E494E0FC01158680E494E0A1
:10047A00FC01148680E694E0FC01138680E694E091
:10048A00FC01168680E694E0FC01158680E694E07D
:10049A00FC01148680E894E0FC01138680E894E06D
:1004AA00FC01168680E894E0FC01158680E894E059
:1004BA00FC01148680EA94E0FC01138680EA94E049
:1004CA00FC01168680EA94E0FC01158680EA94E035
:1004DA00FC01148680EE95E0FC01118680EE95E021
:1004EA00FC01118280EE95E0FC01108280EE95E01D
:1004FA00FC01148280EE95E0FC01168280EE95E004
:10050A00FC01178280EE95E0FC01108680EE95E0F2
:10051A00FC01158280EE95E0FC01128280EE95E0E6
:10052A00FC01138280EE95E0FC01128688E899E0CE
:10053A000E94150880E999E00E94280888E999E054
:10054A000E943B0880EA99E00E944E0888EA99E0F6
:10055A000E94610880EB99E00E94740888EB99E098
:10056A000E94870880EC99E00E949A0888EC99E03A
:10057A000E94AD0880ED99E00E94C00888ED99E0DC
:10058A000E94D30880EE99E00E94E6080000DF91FD
:04059A00CF91089560
:10059E00CF93DF93CDB7DEB72697CDBFDEBF1982DF
:1005AE0012C08981882F90E080579B4F2981222F7E
:1005BE0030E020573B4FF90120812860FC01208359
:1005CE0089818F5F89838981883058F31A8212C09E
:1005DE008A81882F90E080559B4F2A81222F30E010
:1005EE0020553B4FF90120812860FC0120838A8130
:1005FE008F5F8A838A81883058F31B8212C08B8169
:10060E00882F90E0805F9B4F2B81222F30E0205F60
:10061E003B4FF90120812860FC0120838B818F5F85
:10062E008B838B81883058F31C8212C08C81882F6B
:10063E0090E0805D9B4F2C81222F30E0205D3B4F60
:10064E00F90120812860FC0120838C818F5F8C83CF
:10065E008C81883058F31D8212C08D81882F90E0D6
:10066E00805B9B4F2D81222F30E0205B3B4FF901A9
:10067E0020812860FC0120838D818F5F8D838D8189
:10068E00883058F31E8212C08E81882F90E08059D8
:10069E009B4F2E81222F30E020593B4FF9012081B4
:1006AE002860FC0120838E818F5F8E838E8188303F
:1006BE0058F300002696CDBFDEBFDF91CF9108958F
:1006CE00CF93DF93CDB7DEB780EC91E0FC011582BE
:1006DE0080EC91E0FC01168280EC91E0FC01178227
:1006EE0080EC91E0FC01118680EC91E0FC01128619
:1006FE0080EC91E02DE0FC01258780EC91E0FC017F
:10070E00168680EC91E0FC01118A80EC91E0FC01F0
:10071E00128A80EC91E0FC01158A80EC91E0FC01DC
:10072E00168A80EC91E0FC01118E80EC91E0FC01C8
:10073E00128E80EC91E0FC01158E80EC91E0FC01B4
:10074E00168E80EC91E0FC01118280EC91E0FC01B0
:10075E00128280EC91E0FC01138280EC91E0FC01AE
:10076E00138680EC91E022E0FC01278780EC91E07B
:10077E00FC01138A80EC91E0FC01178A80EC91E079
:10078E00FC01138E80EC91E0FC01178E80EC91E061
:10079E00FC01108680EC91E021E4FC01248780ECC2
:1007AE0091E0FC01108A80EC91E0FC01148A80EC4F
:1007BE0091E0FC01108E80EC91E0FC01148E80EC37
:1007CE0091E021E0FC01208380E0DF91CF9108953C
:1007DE00CF93DF93CDB7DEB780E89BE02BE030E020
:1007EE00FC0122A733A780E89BE0FC0110A611A60E
:1007FE0080E89BE027E130E0FC0126A737A780E8E0
:10080E009BE02BE030E0FC0124A735A780E89BE0BD
:10081E00FC01118280E89BE028E0FC01228380E845
:10082E009BE020E5FC01238380E89BE0FC01148221
:10083E0080E89BE0FC01168E80E89BE0FC01108EA8
:10084E0080E89BE0FC01118E80E89BE0FC01148A9D
:10085E0080E89BE0FC01158A80E89BE0FC01108695
:10086E0080E89BE0FC0111866FEF82E99BE00E941D
:10087E00BF0780E89BE0FC01108A80E89BE0FC014A
:10088E00118A80E89BE0FC011486000080E89BE062
:10089E00FC018685882F90E081709927892BB1F312
:1008AE0080E89BE0FC01168680E89BE029E0FC01D5
:0A08BE00208380E0DF91CF910895C0
:1008C800CF93DF931F92CDB7DEB7898382E090E0A4
:1008D80080931E4090931F408AE090E080932040D0
:1008E8009093214081E791E08093224090932340A8
:1008F8008FEF93E0809324409093254010922840F6
:100908008981882F90E08330910599F08430910592
:100918001CF4029739F022C08430910589F00597BC
:10092800B1F01CC085EA96E080932640909327405A
:1009380019C086E796E0809326409093274012C01E
:1009480086E297E080932640909327400BC084E18D
:1009580096E0809326409093274004C0109226404A
:100968001092274081E791E00E944D0700000F9008
:06097800DF91CF9108950C
:10097E00CF93DF93CDB7DEB70E94540980E097E0A6
:10098E0027E1FC01228380E097E021E0FC01218336
:10099E0080E097E0FC01178680E097E022E2FC0100
:1009AE00238B80E097E0FC01128A80E097E025E837
:1009BE00FC01208B80E097E02FE7FC01248B80E088
:1009CE0097E0FC01138E80E097E0FC01128E80E030
:1009DE0097E022E0FC01208F80E097E02FE7FC01FA
:1009EE00248F80E097E0FC0113A280E097E0FC01E9
:1009FE0012A280E097E022E0FC0120A380E097E0C5
:100A0E002FE7FC0124A30E9443090000DF91CF9140
:020A1E00089539
:100A20001F920F9200903F000F92112400903B0004
:100A30000F922F933F934F935F936F937F938F9377
:100A40009F93AF93BF93EF93FF93CF93DF93CDB774
:100A5000DEB780E09BE0FC018681882F90E081700A
:100A60009927892B89F080911C4090911D40892BFA
:100A700031F080911C4090911D40FC01099580E06F
:100A80009BE021E0FC0126830000DF91CF91FF91E4
:100A9000EF91BF91AF919F918F917F916F915F91F6
:100AA0004F913F912F910F9000923B000F90009239
:080AB0003F000F901F90189504
:100AB8001F920F9200903F000F92112400903B006C
:100AC8000F922F933F934F935F936F937F938F93DF
:100AD8009F93AF93BF93EF93FF93CF93DF93CDB7DC
:100AE800DEB780E89BE021E0FC0125878091024089
:100AF80090910340892B31F08091024090910340FE
:100B0800FC0109950000DF91CF91FF91EF91BF9112
:100B1800AF919F918F917F916F915F914F913F918D
:100B28002F910F9000923B000F9000923F000F9082
:040B38001F9018955D
:100B3C001F920F9200903F000F92112400903B00E7
:100B4C000F922F933F934F935F936F937F938F935A
:100B5C009F93AF93BF93EF93FF93CF93DF93CDB757
:100B6C00DEB780E89BE024E0FC0125878091004003
:100B7C0090910140892B31F080910040909101407F
:100B8C00FC0109950000DF91CF91FF91EF91BF918E
:100B9C00AF919F918F917F916F915F914F913F9109
:100BAC002F910F9000923B000F9000923F000F90FE
:040BBC001F901895D9
:100BC000CF93DF93CDB7DEB780E09BE02FEE30E030
:100BD000FC012487358780E09BE0FC0112861386A8
:100BE00080E09BE020E1FC01218380E09BE021E0AC
:100BF000FC01208780E09BE0FC01148280E09BE008
:100C000021E0FC01258380E09BE0FC01168280E06E
:100C10009BE0FC01118680E09BE021E4FC01208345
:080C200080E0DF91CF910895FF
:100C2800CF93DF9300D000D0CDB7DEB78B839C8302
:100C38009091284084E6981711F4109228408091EA
:100C48002840882F90E022E531E040E0880F991F86
:100C5800092E000CAA0B820F931FA41FFC015A2F08
:100C68000E947F09CB0189839A83809128408F5FF6
:100C78008093284089819A812496CDBFDEBFDF9179
:040C8800CF9108956B
:100C8C00CF93DF93CDB7DEB760E088E790E00E94AA
:100C9C00D50760E08CE790E00E94D50760E081E624
:100CAC0090E00E94D50760E082E690E00E94D507B4
:100CBC0060E083E690E00E94D50760E880E690E073
:100CCC000E94D50760E085E690E00E94D50764E2BB
:100CDC0088E690E00E94D50780E0DF91CF910895DF
:100CEC00CF93DF9300D0CDB7DEB789839A83809101
:100CFC0020409091214029813A81A901481B590B30
:100D0C00CA0189839A838091224090912340298142
:100D1C003A818217930760F0809122409091234092
:100D2C0089839A8385EA96E08093264090932740A6
:0E0D3C0089819A810F900F90DF91CF910895D9
:100D4A00CF93DF9300D0CDB7DEB789839A838091A2
:100D5A001E4090911F4029813A81820F931F8983F7
:100D6A009A83809124409091254029813A812817BD
:100D7A00390760F0809124409091254089839A83B5
:100D8A0086E796E0809326409093274089819A814E
:0A0D9A000F900F90DF91CF910895A4
:100DA400CF93DF9300D0CDB7DEB7809126409091EA
:100DB4002740892BD9F0209126403091274080EAA2
:100DC40096E0FC01828193810024880F991F001C06
:100DD400880F991F001C892F902DF901099589838B
:100DE4009A8389819A810E944D0701C000000F9067
:080DF4000F90DF91CF910895EB
:100DFC001F920F9200903F000F92112400903B0025
:100E0C000F922F938F939F93EF93FF93CF93DF9337
:100E1C00CDB7DEB780EA90E021E0FC01228700002C
:100E2C00DF91CF91FF91EF919F918F912F910F9027
:100E3C0000923B000F9000923F000F901F9018956E
:100E4C00CF93DF9300D0CDB7DEB789839A8380919F
:100E5C001E4090911F4029813A81820F931F8983F4
:100E6C009A83809124409091254029813A81821760
:100E7C00930730F4809122409091234089839A8388
:0E0E8C0089819A810F900F90DF91CF91089588
:100E9A00CF93DF9300D0CDB7DEB789839A83898158
:100EAA009A81002496958795079496958795079435
:100EBA00982F802D89839A8389819A81807C89835E
:100ECA009A8380EA96E029813A81FC01228333835E
:0C0EDA0000000F900F90DF91CF91089561
:100EE600CF93DF93CDB7DEB70E940D010E940008B5
:100EF6000E9472090E9446060E9465090E94BF046C
:100F06000E941F090E9467030E94E0050E94EB07EA
:100F16000E94EF030E94A9070000DF91CF91089578
:100F2600CF93DF9300D01F92CDB7DEB789839A8324
:100F36006B8389819A814B8168ED0E94E8090000E4
:0C0F46002396CDBFDEBFDF91CF91089550
:100F5200CF93DF93CDB7DEB760E080E191E00E94EE
:100F6200930780E191E0FC01128280E191E0FC01B3
:0C0F72001382789480E0DF91CF91089505
:100F7E00CF93DF9300D01F92CDB7DEB789839A83CC
:100F8E006B8389819A814B8168ED0E94E80900008C
:0C0F9E002396CDBFDEBFDF91CF910895F8
:100FAA00CF93DF9300D01F92CDB7DEB789839A83A0
:100FBA006B8389819A814B8168ED0E94E809000060
:0C0FCA002396CDBFDEBFDF91CF910895CC
:100FD600CF93DF93CDB7DEB780EB90E0FC011482B0
:100FE60080EB90E0FC01108280EB90E025E8FC01AC
:0A0FF600228380E0DF91CF9108957F
:10100000CF93DF93CDB7DEB760E080EA90E00E9437
:10101000D50780EA90E0FC01118680EA90E0FC01AF
:0A102000108680E0DF91CF91089563
:10102A00CF93DF9300D0CDB7DEB789839A838981C6
:10103A009A81809304409093054000000F900F908E
:06104A00DF91CF91089533
:10105000CF93DF9300D0CDB7DEB789839A838981A0
:101060009A81809306409093074000000F900F9064
:06107000DF91CF9108950D
:10107600CF93DF9300D0CDB7DEB789839A8389817A
:101086009A81809308409093094000000F900F903A
:06109600DF91CF910895E7
:10109C00CF93DF9300D0CDB7DEB789839A83898154
:1010AC009A8180930A4090930B4000000F900F9010
:0610BC00DF91CF910895C1
:1010C200CF93DF9300D0CDB7DEB789839A8389812E
:1010D2009A8180930C4090930D4000000F900F90E6
:0610E200DF91CF9108959B
:1010E800CF93DF9300D0CDB7DEB789839A83898108
:1010F8009A8180930E4090930F4000000F900F90BC
:06110800DF91CF91089574
:10110E00CF93DF9300D0CDB7DEB789839A838981E1
:10111E009A81809310409093114000000F900F9091
:06112E00DF91CF9108954E
:10113400CF93DF9300D0CDB7DEB789839A838981BB
:101144009A81809312409093134000000F900F9067
:06115400DF91CF91089528
:10115A00CF93DF9300D0CDB7DEB789839A83898195
:10116A009A81809314409093154000000F900F903D
:06117A00DF91CF91089502
:10118000CF93DF9300D0CDB7DEB789839A8389816F
:101190009A81809316409093174000000F900F9013
:0611A000DF91CF910895DC
:1011A600CF93DF9300D0CDB7DEB789839A83898149
:1011B6009A81809318409093194000000F900F90E9
:0611C600DF91CF910895B6
:1011CC00CF93DF9300D0CDB7DEB789839A83898123
:1011DC009A8180931A4090931B4000000F900F90BF
:0611EC00DF91CF91089590
:1011F2001F920F9200903F000F921124CF93DF9322
:10120200CDB7DEB70000DF91CF910F9000923F0083
:061212000F901F901895DB
:10121800CF93DF9300D0CDB7DEB789839A838981D6
:101228009A8180931C4090931D4000000F900F906E
:06123800DF91CF91089543
:10123E00CF93DF93CDB7DEB780EA96E021ECFC01C9
:10124E00208380EA96E0FC011282138280E0DF9117
:04125E00CF9108958F
:10126200CF93DF93CDB7DEB70E94730785E00E946C
:10127200640481E791E00E944D0782ED96E00E94AE
:041282000C09FFCF85
:10128600CF93DF93CDB7DEB780E097E020E037E07D
:10129600F90120812160FC0120830000DF91CF91BC
:0212A6000895A9
:1012A800CF93DF93CDB7DEB780E097E020E037E05B
:1012B800F90120812E7FFC0120830000DF91CF916E
:0212C800089587
:1012CA00CF93DF93CDB7DEB760E080E590E00E9470
:0A12DA00D50780E0DF91CF91089561
:1012E400CF93DF93CDB7DEB760E080E091E00E945A
:0A12F400D50780E0DF91CF91089547
:1012FE0057FD04C05BBF679177910895619171911D
:02130E00089540
:10131000CF93DF93CDB7DEB70000DF91CF91089573
:10132000CF93DF93CDB7DEB70000DF91CF91089563
:10133000CF93DF93CDB7DEB70000DF91CF91089553
:10134000CF93DF93CDB7DEB70000DF91CF91089543
:10135000CF93DF93CDB7DEB70000DF91CF91089533
:10136000CF93DF93CDB7DEB70000DF91CF91089523
:10137000CF93DF93CDB7DEB70000DF91CF91089513
:10138000CF93DF93CDB7DEB70000DF91CF91089503
:10139000CF93DF93CDB7DEB70000DF91CF910895F3
:1013A000CF93DF93CDB7DEB70000DF91CF910895E3
:1013B000CF93DF93CDB7DEB70000DF91CF910895D3
:1013C000CF93DF93CDB7DEB70000DF91CF910895C3
:0A13D0001BBEFC0164BF40830895BA
:0413DA000C9400006F
:02000004008278
:090000000000000000C00800002F
:00000001FF
