:100000000C947D000C941C040C9487030C941C0429
:100010000C941C040C941C040C941C040C94CC0331
:100020000C941C040C941C040C941C040C941C04D0
:100030000C941C040C941C040C94BF010C941C0420
:100040000C9458020C9488020C941C040C941C040C
:100050000C941C040C941C040C941C040C941C04A0
:100060000C941C040C941C040C941C040C941C0490
:100070000C941C040C941C040C941C040C941C0480
:100080000C941C040C941C040C941C040C941C0470
:100090000C9496030C941C040C941C040C941C04E7
:1000A0000C941C040C941C040C941C040C941C0450
:1000B0000C941C040C941C040C941C040C941C0440
:1000C0000C941C040C941C040C941C040C941C0430
:1000D0000C941C040C941C040C941C040C941C0420
:1000E0000C941C040C941C040C941C040C941C0410
:1000F0000C941C0440004010800011241FBECFEF60
:10010000CDBFDFE7DEBFE4EFF0E040E019C0B7911C
:10011000A79137912791079107FD0EC0979187917D
:10012000EF01F92FE82F0BBF07900D92A217B3072D
:10013000D9F7FE011BBE04C01D92A217B307E1F759
:10014000E93FF40721F70E94D6030C94A700F89426
:02015000FFCFDF
:100152000F931F93CF93DF930E94880140E054E0F6
:100162008CEFFA01808320E234E068E0F9016083D9
:1001720080E494E0FC016083C0E6D4E06CE4688330
:10018200A0E8B4E01C9200EA14E0F8011082FA013F
:100192001482F9011482FC0114821C8214961C92AE
:1001A2001497F8011482FA01108A118A128A138AAA
:1001B200148A158A168A178AF901108A118A128AF4
:1001C200138A148A158A168A178AFC01108A118AE0
:1001D200128A138A148A158A168A178A188A64E080
:1001E200698B6A8B6B8B6C8B1D8A1E8A6F8B509608
:1001F2001C92509751966C93519752961C9252971B
:1002020053966C93539754961C92549755961C92FE
:10021200559756961C92569757961C925797F801E7
:10022200108A118A128A138A148A158A168A178AE0
:10023200FA011386168615861486F9011386168628
:1002420015861486FC0113861686158614861B866F
:100252001E861D861C861B961C921B971E961C9240
:100262001E971D961C921D971C961C92F8011386D0
:10027200168615861486E0EEF5E01186118210824C
:1002820014821682178210861582128213821286B7
:0A029200DF91CF911F910F910895A5
:10029C002AE030E020930E4030930F4020930C4026
:1002AC0030930D4021E731E020930A4030930B400E
:1002BC002FEF33E02093084030930940833059F0FE
:1002CC00843081F08230A9F481E393E0809306407E
:1002DC009093074012C089E493E08093064090937A
:1002EC0007400BC085E793E080930640909307404E
:1002FC0004C0109206401092074080E090E00E94EB
:04030C00A5030895A8
:10031000E0E9F4E0808188608193E83984E0F807BF
:10032000C9F7E0EBF4E0808188608193E83B84E0EA
:10033000F807C9F7E0E1F4E0808188608193E83153
:1003400084E0F807C9F7E0E3F4E0808188608193F6
:10035000E83384E0F807C9F7E0E5F4E080818860DD
:100360008193E83584E0F807C9F7E0E7F4E080819D
:0E03700088608193E83784E0F807C9F70895A4
:10037E001F920F920FB60F9211240BB60F922F935E
:10038E003F934F935F936F937F938F939F93AF930F
:10039E00BF93EF93FF938091060B80FF0AC0E0910D
:1003AE000440F0910540309709F0099581E0809363
:1003BE00060BFF91EF91BF91AF919F918F917F911E
:1003CE006F915F914F913F912F910F900BBE0F90B8
:0803DE000FBE0F901F9018954F
:1003E600CF93DF93C0E8DBE081E090E08AA79BA78C
:1003F60018A619A682E090E08EA79FA71CA61DA6A8
:10040600198288E08A831B821C821E8E188E198EA2
:100416001C8A1D8A188619864FEF68ED82E99BE0D3
:100426000E941204188A198A1C86E0E8FBE0868579
:1004360080FFFDCFE0E8FBE0168681E1808380E067
:06044600DF91CF91089543
:10044C0040E068ED88E790E00E94120440E068ED1F
:10045C008CE790E00E94120440E068ED81E690E0A9
:10046C000E94120440E068ED82E690E00E941204C3
:10047C0040E068ED83E690E00E94120440E868EDED
:10048C0080E690E00E94120440E068ED85E690E082
:10049C000E9412044CE168ED88E690E00E94120480
:0404AC0080E008954F
:1004B0001F920F920FB60F9211240BB60F922F932B
:1004C0003F934F935F936F937F938F939F93AF93DC
:1004D000BF93EF93FF9381E080938D0BE0910040F9
:1004E000F0910140309709F00995FF91EF91BF918C
:1004F000AF919F918F917F916F915F914F913F91BC
:100500002F910F900BBE0F900FBE0F901F9018955C
:100510001F920F920FB60F9211240BB60F922F93CA
:100520003F934F935F936F937F938F939F93AF937B
:10053000BF93EF93FF9384E080938D0BE091024093
:10054000F0910340309709F00995FF91EF91BF9129
:10055000AF919F918F917F916F915F914F913F915B
:100560002F910F900BBE0F900FBE0F901F901895FC
:10057000E0ECF1E01582168217828DE08187128609
:1005800085871686118A128A158A168A118E128E0E
:10059000158E168E11821282138282E083878787DE
:1005A000138A178A138E178E81E480878487108AB6
:0E05B000148A108E148E81E0808380E00895FE
:1005BE000E940604E0E0F7E08FE0828381E0818311
:1005CE00178682E2838B128A85E8808B8FE7848B75
:1005DE00138E128E92E0908F848F13A212A290A38C
:0805EE0084A30E94000408959B
:1005F6000E94A9000E94C0030E94F8030E942602DE
:100606000E94F0030E94DF020E94E8030E94B802E3
:100616000E9461030E94E0030E94F3010E940C0401
:060626000E94B3030895D9
:10062C008091064090910740892BA1F0E091064003
:10063C00F09107408091A2069091A3060024880FA8
:10064C00991F001C880F991F001C892F902D09954C
:06065C000E94A5030895B1
:1006620020910E4030910F40820F931F209108403D
:10067200309109408217930750F080910840909181
:10068200094029E433E0209306403093074008955F
:1006920020910C4030910D40821B930B20910A4017
:1006A20030910B402817390750F080910A40909101
:1006B2000B4021E333E02093064030930740089536
:1006C200E0E0FBE08FE990E084879587128613864D
:1006D20080E1818381E0808714828583168211867E
:0806E20081E4808380E00895AB
:1006EA0020910E4030910F40820F931F20910840B5
:1006FA00309109402817390720F480910A409091D7
:04070A000B40089503
:10070E001F920F920FB60F9211248F9381E0809358
:0E071E00AA008F910F900FBE0F901F9018959C
:10072C001F920F920FB60F9211248F9381E080933A
:0E073C0004108F910F900FBE0F901F90189514
:10074A000024969587950794969587950794982FF0
:0C075A00802D8093A2069093A3060895C2
:1007660040E068ED80E191E00E941204E0E1F1E0F2
:0A07760012821382789480E0089547
:1007800040E068ED80EA90E00E941204E0EAF0E0C8
:080790001186108680E0089537
:100798001F920F920FB60F9211240F900FBE0F9059
:0407A8001F901895F1
:1007AC000E94FB0284E00E944E0186E193E00E94CD
:0407BC001704FFCF50
:1007C000E0EBF0E01482108285E8828380E00895F7
:1007D000E0EAF6E081EC80831282138280E00895E3
:1007E00040E068ED80E590E00E94120480E008950A
:1007F00040E068ED80E091E00E94120480E00895FE
:0C080000E0E0F7E08081816080830895D3
:0C080C00E0E0F7E080818E7F808308959B
:0C081800E0E0F0E11182138280E008951E
:0A0824001BBEFC0164BF4083089571
:0A082E008093044090930540089564
:040838000C9400001C
:02000004008278
:090000000000000000C00800002F
:00000001FF
